:100000000C948C020C94A9020C94A9020C94A902E1
:100010000C94A9020C94A9020C94A9020C94A902B4
:100020000C94A9020C94A9020C9484340C945635B7
:100030000C94072F0C94A9020C94A9020C94A90209
:100040000C94A9020C94A9020C94A9020C94A90284
:100050000C94A9020C94AC2F0C94A9020C94A90244
:100060000C94A9020C94A9020C94A9020C94A90264
:100070000C94A9020C94A9020C94A9020C94A90254
:100080000C94A9020C94A9020C94A9020C94A90244
:100090000C94A9020C94A9020C94A9020C94A90234
:1000A0000C94A9020C94A9020C94A9022106210621
:1000B0004D064D06FC07FC07FC07FC07E2064C0753
:1000C0005E075E07411764176B1702190219A5171F
:1000D000B917CC1717181C182518321841184418CE
:1000E000521860187118A018B118CE18E618BE354D
:1000F000E535DD36E535DD3631365436DD36AB36C1
:10010000BA3614001A000800150017000400160083
:10011000070009000A001D001B0006001900050069
:10012000025501552A00015100001C0018000C0066
:10013000120013000B000D000E000F003400110020
:1001400010003600000037002C000251380000007B
:1001500028001E021F0220022102220259005A001A
:100160005B005C005D002F002F02260235002D028F
:100170000100010001000100000023022402250209
:100180002D002E005E005F006000610062003502FD
:100190002702300200003000010001004C00000086
:1001A0000100290000000000000000005000520083
:1001B00051004F0000002B00000000000000000074
:1001C000010001000100010000000000000000002B
:1001D000000000000000000000000000000000001F
:1001E000000000000000000001000100010000000C
:1001F0000100FD377A585A000004E6D6B4460200E2
:10020000210116000000742FE5A3E0016A00B25D31
:10021000003D888986D3DC0AE842C32492584258BC
:100220008FD8E75CA0D2616E26E888019A676C7867
:1002300087BC8D3709EA511D70D2DBC0939D792EA2
:10024000CA82F753BA0C053629D1A41AC90AD61C9A
:100250008F57D3F5793B7131A303F076D7619F6B4C
:100260005F4026ADFC2BEB6ED6B061D8E2DDA78DEA
:100270008DD68A278AA63109F31DA0F1BD4C62F301
:100280001E43D1D00AA94879EDC0BE9AF8D6604E77
:100290008247B39EC37024CD464B83B67C6EF7EC89
:1002A00077430478A267F730669A62393986877691
:1002B0001F7630E8CCD495C3CF60CDF99E7FA0B82F
:1002C0008B4100000000709E69229293DD8900013D
:1002D000CE01EB020000FE902DD7B1C467FB0200F7
:1002E00000000004595A010001005804371F691F1B
:1002F0000000020002005404371F691F00000300C1
:1003000001005904371F691F0000040002003E0469
:10031000371F691F301F050001005A04371F691F6E
:100320000000060002004004371F691F000007009C
:1003300002005604371F691F0000080001005B041B
:10034000371F691F0000120002005C04371F691F7D
:100350000000130002005E04371F691F0000140034
:1003600001006004371F691F000015000000000035
:10037000351EB21E000000000000000000002A2B05
:100380002800000000000000000000000000000045
:100390000029000000002C1E3420212224342627AE
:1003A000252E362D3738271E1F20212223242526CF
:1003B0003333362E37381F0405060708090A0B0C9D
:1003C0000D0E0F101112131415161718191A1B1CE5
:1003D0001D2F3130232D350405060708090A0B0CA3
:1003E0000D0E0F101112131415161718191A1B1CC5
:1003F0001D2F3130354C00000000000000000000CF
:1004000000000000000000000000000000000000EC
:10041000000000000000000000007E0F00D4FFFF7D
:10042000FFC7000000781C037600690061006C00C3
:100430003A00660036003400630032006200330088
:10044000630000000A034300680061007A000000B6
:100450000C03480061007A0065006C000000040392
:10046000090409024200020100A0FA090400000187
:10047000030101000921110100012240000705814B
:100480000308000109040100020300000009211112
:100490000100012222000705820320000107050355
:1004A000032000011201000200000008484A5A43DC
:1004B0000001010203010660FF0961A10109621543
:1004C0000026FF009520750881020963150026FFAC
:1004D00000952075089102C005010906A1010507D4
:1004E00019E029E71500250195087501810295019C
:1004F000750881010507190029FF150026FF0095E1
:1005000006750881000508190129059505750191F1
:1005100002950175039101C011241FBECFEFDAE0EF
:10052000DEBFCDBF11E0A0E0B1E0E2EAFFE602C02D
:1005300005900D92AE32B107D9F724E0AEE2B1E0FA
:1005400001C01D92A337B207E1F70E9453140C9427
:10055000CF370C94000083E008959C013A95211553
:100560003F4130F5BC0166277270AC0144275470DE
:100570009C012227387094FF0FC090FF02C080E1D9
:1005800001C080E0672B09F08062452B09F0806490
:10059000232B79F080680895892F8170672B09F0EB
:1005A0008260452B09F08460232B19F08860089540
:1005B00080E00895CF93DF93EB010E94AD02FE012E
:1005C0000995DF91CF910895CF93DF93EC01805E81
:1005D0009109089710F0209719F46DE775E002C0B3
:1005E0006BE875E0CE010E94DA028C2F0E94F704BE
:1005F000DF91CF910895CF93DF93EC010E942905FD
:10060000CE01805E9109089710F0209719F464E8F4
:1006100075E002C062E975E0CE010E94DA02DF9166
:10062000CF91089581E0089581E008950E94140318
:10063000089508950E9419030895A5E0B0E0E3E24B
:10064000F3E00C94273749835A833091350189812F
:100650009A81311114C0662359F0222349F00E9477
:100660009509182F682F89819A810E94710903C00A
:100670000E948309182F69817A81812F04C00E940A
:10068000950969817A810E94FC1C2596E3E00C940F
:100690004337FC0186819781009741F4262F4081E2
:1006A00051816281738184810E941D030895CF93DB
:1006B000DF93EC0161E00E944903BE010E946C27B8
:1006C000DF91CF910895CF93DF93EC0160E00E941A
:1006D0004903BE010E941A03DF91CF910895E1E022
:1006E000F0E0DF0102C0AA0FBB1F6A95E2F7BD016F
:1006F000DF0102C0AA0FBB1F4A95E2F7AD01462BEE
:1007000001C0EE0F2A95EAF7942F9823491302C0EF
:100710008E2B0895E0958E230895242F462F682F61
:10072000809147010E946F030E94D00808950E94A3
:10073000221308950E941C13089508950E94A7058E
:100740000E949D032FEF84E39CE021508040904065
:10075000E1F700C0000008950E949E030E94D22F7E
:1007600008950E949E030E94E32F08950F931F9304
:10077000CF93DF93EC018B010E94632DB801CE0172
:100780000E94CB14882309F43FC0B801CE010E9417
:10079000921A8823C9F1B801CE010E94160388235A
:1007A00099F1B801CE010E94992A882369F1B80114
:1007B000CE010E94862D882339F1B801CE010E9416
:1007C0005B24882309F1B801CE010E94D22C882332
:1007D000D9F0B801CE010E94A9208823A9F0B80160
:1007E000CE010E942729882379F0F801828188238D
:1007F00031F1CA358DE5D807E9F070F4C115FCE593
:10080000DF0721F40E94AC0380E01CC0CE3DDC4534
:10081000B1F40E94181008C0CC35EDE5DE0739F0C0
:1008200060F0C73ADD4559F40E94B103EDCF0E9454
:100830004F0F05C00E94590F02C00E945D0FC801F2
:100840000E941203DF91CF911F910F910895CF93D2
:10085000DF93EC0161E00E944903BE010E94B603F0
:10086000DF91CF9108950E94E02E0E9450040895D8
:100870000E9454040E94E92E089508950E943D04A8
:10088000089581E008950E94410408950895CF934A
:10089000C82F0E943E048C2F0E944304CF910895DC
:1008A00080E00E94470408950E94292E0E94470478
:1008B0000895CF930E94292EC82F80913001C81728
:1008C00079F0C09330010E94752F609331017093CD
:1008D000320180933301909334018C2F0E9447049E
:1008E000CF910895009741F0EFE9FFE03197F1F7DC
:1008F00000C000000197F6CF0895ADE0B0E0E3E856
:10090000F4E00C942637942F4987252F5A876B875C
:100910007C878D874C855D85452B31F02F3F31F4E9
:1009200081E09F3F19F403C081E001C080E080FDB9
:1009300009C080913601909137010196909337015B
:10094000809336018B8581110E94440E8E010F5FCA
:100950001F4F88E0F80111928A95E9F785E0FE01C2
:100960003996D80101900D928A95E1F78091DB03C9
:1009700082FF12C08091400490914104892B61F064
:100980000E94000E882319F082E00E941D0F0E9431
:10099000DC0D81110E94740E99818A812C813D8128
:1009A000232B31F08F3F31F481E09F3F19F403C0D6
:1009B00081E001C080E080FF0BC029813A814B813A
:1009C0005C816D817E818F8198850E942D0D05C08F
:1009D000C8010E9457038111F0CF2D96E4E00C94DA
:1009E0004237FC01808191810E94C2090895CF9312
:1009F000882369F1C82F8CEF8C0F813AD0F46C2FCB
:100A000080910001909101010E94792E882349F084
:100A10006C2F80910001909101010E94B22E0E94E2
:100A2000820E6C2F80910001909101010E94AF2EE7
:100A30000CC080E28C0F883050F4C77081E001C098
:100A4000880FCA95EAF70E94240E0E94820ECF9169
:100A50000895882359F1682F8CEF860F813A38F476
:100A600080910001909101010E94B22E0CC080E2A1
:100A7000860F883058F4677081E001C0880F6A954E
:100A8000EAF70E942A0E0E94820E08958BE5860FD7
:100A9000833028F480E090E00E94412E0895685A47
:100AA000673120F480E090E00E94572E08951F9354
:100AB000CF93DF93182FEB010E94F704209741F0AA
:100AC0008FE99FE00197F1F700C000002197F6CF72
:100AD000812F0E942905DF91CF911F9108958933BD
:100AE00029F460915E0470915F0404C060915C041D
:100AF00070915D040E9457050895882321F00E949B
:100B0000240E0E94820E0895882321F00E942A0E4E
:100B10000E94820E0895882321F00E94370E0E94C1
:100B2000820E0895882321F00E943D0E0E94820EBD
:100B300008950E94440E0E94820E08958091000143
:100B4000909101010E94B52E0E94990508950E947E
:100B5000310E0E949E05089592959F70963079F00F
:100B600010F4925001C09A50923068F4803F69F0BE
:100B700018F4883E40F409C0843F29F406C0883E3A
:100B800020F0813F11F080E0089581E00895FC019C
:100B90009081818123813481232B31F08F3F31F487
:100BA00081E09F3F19F403C081E001C080E080FD37
:100BB0000EC086819781009719F00E94F71004C03B
:100BC000808191810E94C2090E94AC05089580E055
:100BD0000895A0E0B0E0EFEEF5E00C9421377C0141
:100BE000EB01FC01D280058102950F700E941A0E64
:100BF0008823B9F0DD20A9F08D2F807F803421F08B
:100C000080E28C0F883068F08091DB0382FF09C09E
:100C100082E00E941D0F0E941A0E91E0C82EC92684
:100C200001C0C12CBD2EB2948FE0B8228B2D90E074
:100C30008C30910508F0E0C1FC01EA5AFF4F0C949A
:100C40000B371D2F1F708D2F807F11F01295107F95
:100C5000DD2099F0112309F4ADC180E28C0F8830BA
:100C600010F0C11104C0812F0E94240E03C0812FF7
:100C70000E94370E0E94820E9DC18C2F0E94290572
:100C8000112309F4B9C180E28C0F883048F1CC23DC
:100C900039F1812F0E943D0E26C01D2F1F708D2F10
:100CA000807F803211F01295107FCC2321F0C1306B
:100CB00009F45AC065C08091DB0382FD17C0DD20B6
:100CC00049F0112329F0812F0E94240E0E94820EE8
:100CD00080E071C180E00E942905112309F48CC1D4
:100CE000812F0E942A0E0E94820E86C1DD20E1F033
:100CF0000023B1F0013031F40E94530E812B0E9489
:100D00005D0E7AC180915A04823050F0081308C0F9
:100D10000E94740E0E94D90D812B0E94E90E48C0DA
:100D20000E94530E812B45C00023D9F080915A04B4
:100D3000013091F4823008F45FC10E94210E8123BA
:100D400009F45AC10E94740E0E94D90D912F9095FA
:100D500089230E94E90E32C0823018F0081709F486
:100D60004BC10E94740E2AC080916004DD2021F0E6
:100D7000801708F441C11CC0081708F03DC11EC00F
:100D8000DD20D1F00023A1F020E0F7014081518166
:100D90006281738184810E941D03B7010E945D20DE
:100DA000811108C1F701858180FF04C18F7085839F
:100DB000812F0E947D0520C1011107C1812F0E9452
:100DC00084051AC18D2F837081F5D11019C14C2F64
:100DD000429546954770440F440F2C2F2F70042ED8
:100DE00001C0220F0A94EAF7C4FF08C08FE090E028
:100DF00001C0880F4A95EAF7809501C080E09D2FD9
:100E0000969596959370822B923049F058F49130D4
:100E100019F00E94C108F4C00E94BB08F1C00E94F2
:100E2000C708EEC00E94B808EBC0DD2019F08D2F76
:100E3000817001C08695882309F4E2C04C2F429549
:100E400046954770440F440F2C2F2F70042E01C07D
:100E5000220F0A94EAF7C4FF08C08FE090E001C0B7
:100E6000880F4A95EAF7809501C080E09D2F9695FE
:100E700096959370822B923049F058F4913019F086
:100E80000E940F09BDC00E940909BAC00E9415093D
:100E9000B7C00E94D008B4C01D2F1F70DD2039F0EC
:100EA000812F0E94E4088C2F0E947D05A9C08C2F01
:100EB0000E948405812F0E94F008A2C0C23FD9F091
:100EC00028F4C03F41F0C13F51F170C0C33FC9F0A9
:100ED000C43F09F16BC080916004DD2021F0081748
:100EE00008F08AC003C0801708F486C08D2F8F7168
:100EF0000E94FD0881C08D2F8F71DD2009F460C034
:100F000077C0DD2029F08D2F8F710E94DB0874C01F
:100F10000E94D70871C08091DB0382FD06C08D2F2F
:100F20008F71DD2009F464C04BC080915A04823077
:100F300040F1DD20C1F00E94FC0D843039F40E94A4
:100F4000130F8D2F8F710E94F00855C080915A04A5
:100F5000081708F050C01D2F1F71812F0E94E40850
:100F600063E0812F07C0081740F00E94130F64E070
:100F70008D2F8F710E94F50E3EC081E00E941D0FE3
:100F80003AC0DD2051F01D2F1F71812F0E94E4080F
:100F900063E0812F0E94F50E2FC081E00E941D0F9B
:100FA000023050F182E00E941D0F26C0DD2059F072
:100FB000002321F08C2F0E94F7041EC08D2F8F710B
:100FC0000E94E40819C0002389F0C93329F48091F4
:100FD0005E0490915F0404C080915C0490915D0474
:100FE0000E9472048C2F0E94290506C08D2F8F71DC
:100FF0000E94F00801C0C12C88EF8B0D843020F4D2
:101000000E94292E0E944704CE010E94AC05811146
:1010100005C010923701109236011FC0DD2019F073
:101020000111F7CF1AC00111F4CF20E0F701408180
:1010300051816281738184810E941D03B7010E94E6
:101040006820882331F3809136019091370102970F
:1010500001F78C2F0E946F05DCCFCC2089F00E9415
:10106000FC0D80FD0DC0F70112820E94F60D0E945A
:10107000E408C7010E9464080E94F60D0E94F0086F
:10108000CDB7DEB7E9E00C943D370F931F93CF93B4
:10109000DF93EC018E819F81009719F00E94F71079
:1010A00005C0688179818A810E94CD098C010E94E6
:1010B0001B090E94A908B801CE010E94E905DF9131
:1010C000CF911F910F910895CF93DF93EC019881F9
:1010D00089812B813C81232B31F08F3F31F481E0DA
:1010E0009F3F19F403C081E001C080E080FD1AC079
:1010F000CE010E94270481110FC00E941A0E88237E
:1011000089F08A81882371F08091DB0382FF0AC015
:1011100082E00E941D0F06C0CE010E944508CE014C
:101120000E946303DF91CF910895A5E0B0E0EBE961
:10113000F8E00C9428372596E2E00C944437A8E0B8
:10114000B0E0E5EAF8E00C9428372896E2E00C9449
:101150004437089508950E94AA0808950E94AB0894
:1011600008950E94AE08809348010E949905089551
:101170000E94B108089590914801892B0E94B108FE
:1011800008959091480189230E94B1080895909193
:10119000480189270E94B10808950E94AA0808956D
:1011A0000E94CD08809347010E949905089580E030
:1011B0000E94D008089591E001C0990F8A95EAF73E
:1011C000892F0E94D008089521E030E001C0220F4D
:1011D0008A95EAF780914701822B0E94D0080895F2
:1011E00021E030E001C0220F8A95EAF72095809136
:1011F000470182230E94D008089521E030E001C019
:10120000220F8A95EAF78091470182270E94D00831
:10121000089590914701892B0E94D00808959091DC
:10122000470189230E94D00808959091470189279A
:101230000E94D00808950895962F9770A1E001C0EC
:10124000AA0F9A95EAF793E0769567959A95E1F754
:10125000FB01EE0FFF1F6E0F7F1FFA01E60FF71F56
:1012600040E050E0682F70E090819B01042E02C0A6
:10127000369527950A94E2F72170219529272A238C
:10128000292721934F5F5F4F4330510569F7089538
:101290009B01782F777043E0969587954A95E1F703
:1012A000FC01EE0FFF1F8E0F9F1FF901E80FF91FC2
:1012B00040E050E080E0219130E0072E02C03695FA
:1012C00027950A94E2F721703327042E01C0220FDC
:1012D0000A94EAF7822B4F5F5F4F4330510559F76D
:1012E0000895282F983070F4853060F4862F622F8F
:1012F00070E025E0929F600D711D112448E351E0DC
:101300000E941C090895983070F4853060F4292FEC
:1013100090E068E371E035E0239F800D911D11247A
:101320000E944809089580E00895CF92DF92FF92CD
:101330000F931F93CF93DF936C010091470180912E
:101340004801082BC7E0D0E010E0C8010C2E02C015
:10135000959587950A94E2F780FD04C02197A8F738
:10136000F12C07C0FC2EB6018C2F0E94D5110197DD
:10137000A9F38F2DDF91CF911F910F91FF90DF90F7
:10138000CF900895CF93DF93EC010E949509BE01A1
:101390000E94D511DF91CF9108951F93CF93DF93D2
:1013A000EB0190913501992321F0CB010E94C209F4
:1013B00013C0882349F0CB010E949509182F682F8C
:1013C000CE010E94710904C0CB010E948309182F2D
:1013D000BE01812F0E94D511DF91CF911F910895F9
:1013E000CF93DF93C091490180914A01C817B1F0B2
:1013F000D0E0FE0183E0EE0FFF1F8A95E1F7E55B89
:10140000FE4F2081318142815381648175818681C3
:1014100097810E949F082196C770E6CFDF91CF91F8
:10142000089520918B0130918C0140918D01509154
:101430008E0160918F017091900180919101909146
:1014400092010E949F0808952091490190914A01BC
:101450002917B1F030E0F90153E0EE0FFF1F5A9564
:10146000E1F7E55BFE4F5181561306C050815813DA
:1014700003C05281541306C02F5F3F4F2770E8CF3F
:1014800080E0089581E00895EF92FF920F931F93FB
:10149000CF93DF938091900182958F7009F05CC0AB
:1014A00080918D01882309F457C0C0914901809132
:1014B0004A01C81709F450C090918B0140918C01EA
:1014C00020918E0130918F012115310531F04F3F70
:1014D00031F481E09F3F19F403C081E001C080E056
:1014E000D0E080FD36C08E0183E0000F111F8A9589
:1014F000E1F7F801E55BFE4F818184132AC080810A
:10150000891327C08281811124C0E380F480E21A0C
:10151000F30A60E08BE891E00E9449036BE871E018
:101520000E94721AE816F906A0F4809190018F705B
:10153000806180939001F801E05BFE4F80818F70A5
:10154000806180838BE891E00E9464080E94F0092A
:1015500003C02196C770ABCFCDB7DEB7E6E00C94E1
:101560004037A5E1B0E0E7EBFAE00C941A378C01C4
:1015700085E0F801DE01519601900D928A95E1F720
:10158000D8014C9011965C90119712966C9012971E
:101590001396ED90FC90149760E08BE891E00E9428
:1015A00049035C0190918B0180918C0120918E0107
:1015B00030918F012115310531F08F3F31F481E0F9
:1015C0009F3F19F403C081E001C080E080FD26C286
:1015D0008BE8C82E81E0D82E70908D014701821AC9
:1015E000930A60E0772009F490C1C6010E94490384
:1015F000B6010E94721A20919001207F88169906E8
:1016000008F029C190918B0130918C0140918E019D
:1016100050918F012111AEC0452B31F03F3F31F485
:1016200081E09F3F19F403C081E001C080E080FDAC
:1016300025C0F8018181831321C0808189131EC0D8
:101640002091910130919201868197812817390765
:10165000A9F4762C611012C0809190018F70806186
:10166000809390010E94110A8BE891E00E94640827
:1016700080919001D80115968C93EAC1E114F10490
:1016800039F0BFEF5B1206C081E04B1203C003C00C
:1016900081E001C080E080FD03C081E0862502C0BA
:1016A00080E090E080FF17C0462D652D842D0E94BC
:1016B000240A882381F06BE871E0C5010E9459205B
:1016C000882349F08BE891E00E946408EBE8F1E0A0
:1016D00088E0DF01D0C0E114F10439F0BFEF5B1204
:1016E00006C081E04B1203C003C081E001C080E06E
:1016F00080FD03C081E0862502C080E090E0E82FF5
:10170000E170FE2E80FF2CC0462D652D842D0E9499
:10171000240A782E811124C0498A5A8A89899A8993
:101720000E94C209292F22952F70223018F02430F0
:1017300090F405C09F7059F0811109C089C19F7054
:1017400031F0D80115969C91907F09F481C1805E9B
:10175000883008F47DC1C8010E9464087F2C78C1DC
:10176000762C662009F474C1809190018160809389
:10177000900186C0452B31F03F3F31F481E09F3F1F
:1017800019F403C081E001C080E080FD16C0F801BB
:101790008181831312C0808189130FC02091910130
:1017A00030919201868197812817390731F46110B1
:1017B00004C080919001858300C1C8010E94C705C3
:1017C000882309F442C0662009F43FC020919001AB
:1017D000822F82958F7090E00297A4F080918B0108
:1017E00090918C019A8789871B86FD86EC862E87CF
:1017F0008091910190919201988B8F87CE010996EB
:101800000E94640888E0F801ABE8B1E001900D9215
:101810008A95E1F70E94440A0E94110A19C090912A
:101820008B0120918C0140918E0150918F01452BAD
:1018300049F12F3F49F581E09F3F31F580FF26C0F8
:10184000C8010E94C705811141C0C8010E946408F7
:1018500077247394FDC02111E2CF7E2DFD8AEC8A9E
:10186000A201662D8D890E9495088BE891E00E9467
:10187000640888E0D6011D928A95E9F70E94110A52
:10188000712CE6C081E0DACF80E0D8CFF801818109
:101890008213D6CF80818913D3CF209191013091CB
:1018A0009201868197812817390751F66110C8CFB8
:1018B000809190018583C8010E94640888E0EBE86C
:1018C000F1E0DF011D928A95E9F7C2C0662009F4B4
:1018D000BCCF20919001822F82958F7090E002976B
:1018E0000CF490CF80918B0190918C019A83898325
:1018F0001B82FD82EC822E83809191019091920156
:1019000098878F83CE0101967BCF8BE891E00E9470
:1019100049036BE871E00E94721A8816990608F074
:101920006FC0762C662009F490CF90918B012091A6
:101930008C0140918E0150918F01452B31F02F3F4A
:1019400031F481E09F3F19F403C081E001C080E0E1
:1019500080FD48C0F8018181821344C080818913D1
:1019600041C0209191013091920186819781281781
:101970003907C1F56BE871E0C5010E946220811151
:1019800028C02091900120FD24C0822F82958F7065
:10199000482F50E041155105E1F0D80115962C93E0
:1019A00015974F30510549F08F5F982F9295907F92
:1019B000822F8F70892B15968C93C8010E94640822
:1019C00088E0F801ABE8B1E001900D928A95E1F76B
:1019D0003DC088E0F801ABE8B1E001900D928A9536
:1019E000E1F736C0C8010E94C70581110BCF809175
:1019F0009001816080939001C8010E94640828C012
:101A00007E2DFD8AEC8AA201662D8D890E949508A3
:101A100088E0F60111928A95E9F718C0662009F46A
:101A200014CFC8010E94C705782E882309F40DCF72
:101A300088E0F801ABE8B1E001900D928A95E1F7FA
:101A40008BE891E00E94F1040E94440A0E94110A6E
:101A5000872D6596E0E10C943637A0E1B0E0E3E332
:101A6000FDE00C94283729873A874B875C876D8780
:101A70007E878F87988BCE0109960E94B10A8823B2
:101A8000E1F099858A852C853D85232B31F08F3FA8
:101A900031F481E09F3F19F403C081E001C080E090
:101AA00080FD6FC029853A854B855C856D857E8577
:101AB0008F8598890E949F0864C088E0FE0139964E
:101AC000DE01119601900D928A95E1F779856A857C
:101AD0004C855D854115510531F06F3F31F481E052
:101AE0007F3F19F403C081E001C080E080FD49C060
:101AF000A0914A01B0E0CD0101968770992720910D
:101B0000490130E08217930709F442C079836A8360
:101B10005D834C8393E0AA0FBB1F9A95E1F7A55B09
:101B2000BE4F98E0FE01319601900D929A95E1F733
:101B300080934A010E94F00924C028E0829FC001DE
:101B40001124855B9E4F0E94B10A882371F1E091B8
:101B5000490188E0E89FF0011124E55BFE4F2081F8
:101B600031814281538164817581868197810E9490
:101B70009F088091490190E0019687709927809392
:101B800049018091490190914A018913D6CF0DC036
:101B90000E94A70510924A0110924901EBE8F1E07A
:101BA00088E0DF011D928A95E9F76096E2E00C94E7
:101BB00044378091A00108958091400490914104A0
:101BC000892B89F00E94692F20919E0130919F01FD
:101BD000AC01421B530B81E0209140043091410441
:101BE0004217530708F480E08170089580919D01A9
:101BF000859585958595089580919D0187700895B7
:101C00000E94692F20919B0130919C01821B930BB4
:101C100020914004309141048217930740F0809155
:101C20009D0182FB882780F991E0892701C080E02F
:101C30008170089590919D01977081E009F480E092
:101C400008958091AD0108959091AD01892B809305
:101C5000AD01089580959091AD0189238093AD01E8
:101C600008951092AD0108958091AC01089590916E
:101C7000AC01892B8093AC01089580959091AC01C3
:101C800089238093AC0108951092AC01089580934C
:101C9000AB0108951092AB0108958093AA010895B5
:101CA0001092AA0108958091A101089508950E94BB
:101CB000560E08950E94570E0895CF939091DB031E
:101CC00092FF10C09091A101981761F0C82F0E9457
:101CD000692F90939F0180939E01C093A1018C2F47
:101CE0000E945A0ECF9108958091A101882349F056
:101CF0001092A10110929F0110929E0180E00E941B
:101D00005A0E0895CF93DF93E0910001F091010105
:101D10008091AD018083E0910001F09101019081FB
:101D20008091AC01892B80838091A1018823E9F007
:101D30008091400490914104892B29F00E94DC0D90
:101D400081110E94740EE0910001F09101019081D7
:101D50008091A101892B80838091000190910101E4
:101D60000E946D2E81110E94740EE0910001F0918D
:101D700001018091AA018095908189238083E0915F
:101D80000001F091010190818091AB01892B80834A
:101D9000C0910001D091010148E050E063E971E099
:101DA000CE010E945837892B59F088E0FE01A3E943
:101DB000B1E001900D928A95E1F7CE010E94362E96
:101DC000DF91CF9108950E94560E08950E94E30E70
:101DD00008959091A001981721F08093A0010E948E
:101DE000E60E08950E94560E08959091DB0392FF2F
:101DF00017C098E0899F90011124262B20939D0104
:101E00000E94E4080E94692F90939C0180939B019B
:101E100080919D018595859585950E94F20E089586
:101E20000E94E408089510929D0110929C01109266
:101E30009B0180E00E94F20E089520919D01809503
:101E4000822380939D01982F977099F430E0482F5A
:101E5000082E000C550B2417350759F09091DB0321
:101E600092FF07C08595859585950E94F0080E9490
:101E7000130F08959091DB0392FB222720F9281776
:101E800069F080FB92F99093DB038091DA039091E3
:101E9000DB030E948F0F82E00E941D0F0895809146
:101EA000DB0382FB882780F991E089270E943A0FA3
:101EB000089581E00E943A0F089580E00E943A0F51
:101EC00008956FEF7FEF80E090E00E94B1370895B2
:101ED00080E090E00E948D37883E9E4F19F40E946A
:101EE0006014089580E0089582E090E00E948537B4
:101EF000089583E090E00E9485370895CF9384E0B1
:101F000090E00E948537C82F82E290E00E948537DA
:101F10002C2F30E0A901582BCA01CF910895CF93FF
:101F2000C92F682F84E090E00E9493376C2F82E2E3
:101F300090E00E949337CF910895AB01BC018FE0F0
:101F400090E00E94A5370895AB01BC0183E190E0C9
:101F50000E94A537089560E070E0CB010E94A40FB5
:101F6000089560E070E0CB010E949D0F0E94AB0FCE
:101F7000089568EE7EEF80E090E00E94B13760E067
:101F800082E090E00E94933760E083E090E00E945E
:101F900093371092480160E084E090E00E9493370C
:101FA00064E082E290E00E94933760E085E090E098
:101FB0000E94933760E086E090E00E9493376FEFD5
:101FC00087E090E00E94933740E050E0BA0188E05B
:101FD00090E00E94A53760E08DE090E00E9493378A
:101FE00040E050E0BA0188E190E00E94A53760E04F
:101FF00087E190E00E94933740E050E0BA018CE125
:1020000090E00E94A53760E070E080E290E00E94DE
:10201000B13740E050E0BA0188E190E00E94A53776
:1020200080E00E9479140E94AE140E94B10F0895BE
:102030000E94B90F0895682F8EE090E00E949337B8
:1020400008950E94752F6093BC017093BD01809329
:10205000BE019093BF016093B8017093B901809362
:10206000BA019093BB01089581E008950E94341055
:10207000089508950E94391008950E943910089516
:102080000E943D1008950E94391008950E94431047
:1020900008950E943910089589EB92E10E941F2E45
:1020A0000E9418170E94841F0E9449100E94461027
:1020B00008950E943A100E94391008950E94D81283
:1020C0000E94460408950E94602F0E94BE140E9440
:1020D000BA130E945E100E94401008950E945D2A6B
:1020E0000E94E72D0E9425270E9420240895AAE03F
:1020F000B0E0EDE7F0E10C9420370E94D01380EBC4
:10210000E82E81E0F82E670100E0F60111916F01E1
:10211000802F0E94081381270F5F083019F0882351
:10212000A1F322C0811120C00E94692F8C018091EF
:10213000AE019091AF010817190709F450C08FEF55
:1021400089838A831B820E94692F8160782F9D83F7
:102150008C8349815A816B818D810E947D0410930B
:10216000AF010093AE013BC08091C00181FD0E9490
:102170000E130E943610A82E10E0812F0E94081323
:10218000B82EF701C080C82611F100E0DD24D394F9
:102190008C2D8D21B1F0AA20A1F00E831F8391E038
:1021A0008B2D8D2109F490E098870E94692F816022
:1021B000782F9A8789874E815F8168858A850E94FA
:1021C0007D040F5FDD0C053019F7F701B0821F5F4A
:1021D000FFEFEF1AFF0A183081F60E9421100E94CB
:1021E0006E100E9459042A96EAE00C943C37CF9373
:1021F000DF930E94DA11EC01811523E59207A8F51F
:10220000811532E5930708F092C0C11580E2D80726
:10221000C8F4C11591E0D90708F0C3C0C53AD1058B
:1022200050F4C430D10508F0BCC0219709F0B6C005
:1022300081E090E0B7C0CE01805E9109089708F474
:10224000B0C0ACC0C11521E5D20708F06AC0C11505
:1022500030E5D30708F051C0C11580E4D80708F471
:102260009DC0DF70CE01906A9DC0C11596E5D9076B
:1022700000F5C11525E5D20708F074C0C11534E595
:10228000D30708F069C0CE018370992721E030E0C0
:1022900002C0220F331F8A95E2F79C2F96959695E0
:1022A00080E2989FE0011124C22BD32BCE019A68C3
:1022B00079C0C1158AE5D80780F4C11599E5D90719
:1022C00008F05AC0C11528E5D20708F467C0DC2F12
:1022D000CC27CE01806F906A65C0CE0190568115E3
:1022E000904208F05BC08D2F8F710E947612DD271F
:1022F000D0628F719E01382B4FC08C2F8F708695C6
:10230000869590E2899F90011124C37081E090E04E
:1023100002C0880F991FCA95E2F79D68822B932B04
:1023200041C0DC2FCC27CE01816F906A3BC0837007
:10233000992721E030E002C0220F331F8A95E2F78F
:102340009C2F9695969580E2989FE0011124C22BD0
:10235000D32BCE019C6826C0DC2FCC27CE01846F06
:10236000906A20C08C2F0E9476128F7190E0D82F37
:10237000CC27CE01906216C08C2F8F700E947612EF
:1023800094E0D695C7959A95E1F7CF70D0E0DC2F11
:10239000CC27D0699E01282BC90104C080E090E0C1
:1023A00001C0CE01DF91CF9108950E94FC1C0E94D4
:1023B000F71008958238910569F1B0F481339105E1
:1023C00009F475C048F48932910509F467C08A326E
:1023D000910509F471C008958533910509F459C038
:1023E00089339105B9F00895833E910589F138F458
:1023F000803E9105D1F0823E910529F10895863EF7
:102400009105C9F1873E9105D9F1843E910509F006
:102410006CC027C02091DA0320FD57C021FD55C0B4
:102420002091DB0323FD5BC008958091DA0380FDDA
:1024300048C08091DB0380FF48C08091DA0384FDAF
:1024400046C083EE51C08091DA0382FF3CC0F5CFD5
:102450008091DA0382FD37C08091DB0380FD35C0B7
:10246000ECCF8091DB0381FF36C08091DA0384FDDD
:102470002EC087EE39C08091DA0383FF2AC0F5CFE2
:102480008091DA0383FD25C08091DB0381FD23C0A9
:10249000ECCF8091DA0385FD22C01FC08091DA0362
:1024A00085FD1BC08091DB0383FF19C00AC08091AA
:1024B000DA0386FD16C017C08091DA0386FD13C0CB
:1024C00010C089E311C082EE0FC080EE0DC080E025
:1024D0000BC086EE09C084EE07C085E305C089E223
:1024E00003C08AE201C081E390E008959091DA038D
:1024F00092FF0DC0282F2871283019F4877F84603F
:1025000006C0282F2471243011F48B7F886093FF3C
:102510000DC0282F2871283119F4877E846106C0E8
:10252000282F2471243111F48B7E88612091DB03E4
:1025300020FF0DC0382F3871383019F4877F816043
:1025400006C0382F3171313011F48E7F886021FF41
:102550000DC0282F2871283119F4877E816106C0AB
:10256000282F2171213111F48E7E886194FD877EA0
:10257000089580E008950E94610F08950E94D0138D
:102580002FEF86E791E0215080409040E1F700C0B6
:1025900000000E94D01380E00E94081380FF04C056
:1025A0000E94BB120E94D22F08950E94BE1208956D
:1025B0000E94680F811102C00E9418100E94740FBF
:1025C0008093C0010E947E0F9093DB038093DA0317
:1025D0000E94D5120E94790F0E94B808809147018D
:1025E0000E94CD080895E82FF0E0EC51FC4F2081C7
:1025F000822F90E021E030E002C0220F331F6A9565
:10260000E2F72823392381E0232B09F480E00895A1
:10261000E82FF0E0EC51FC4F80810895089580EAA6
:102620008A95F1F7089500C008950E940F13089548
:1026300008950E94181308950E94191308950E9486
:10264000181308950E941F130895F894E82FE29537
:10265000EF70F0E031A1282F2F7081E090E001C0F1
:10266000880F2A95EAF7982F9095932391A392A12A
:10267000892B82A3789408950F931F93CF93DF93B0
:10268000C5E2D1E089918F3F11F00E94251381E0CE
:10269000CD32D807B9F7C0E2D1E005E211E0899167
:1026A0008F3F11F00E9425130C171D07C1F7DF9112
:1026B000CF911F910F910895A0E0B0E0E2E6F3E121
:1026C0000C9422378C01C62FD0E0CE018B5D9E4F3B
:1026D0007C01FC0190819F3F09F447C0D62EF894FD
:1026E000E92FE295EF70F0E081A19F7021E030E0EA
:1026F00001C0220F9A95EAF7822B81A382A120952F
:10270000282322A378940E941313E0E2F1E045E22B
:1027100051E031E0C12C21912F3F89F0A22FA295E9
:10272000AF70B0E090968C9190E02F7002C09595BC
:1027300087952A95E2F780FD02C0832F01C080E0D3
:10274000C82A330F4E175F0731F7F70180818F3F9B
:1027500011F00E94251361E0C11001C060E08D2DD1
:102760000E941513C00FD11FC882CDB7DEB7E8E0B5
:102770000C943E370E943C1388E0E4EEF3E0DF0166
:10278000982F1D929A95E9F7ECEDF3E0DF011D9289
:102790008A95E9F788E00E940B140E949703089538
:1027A000A8E0B0E0E6EDF3E10C9425378E010F5F71
:1027B0001F4F88E0F80111928A95E9F7F12C6F2DEF
:1027C000C8010E945C13F394F8E0FF12F8CF48E0D0
:1027D00050E0B8018CED93E00E94583721E000975B
:1027E00009F420E0892B41F088E0F801ACEDB3E07A
:1027F00001900D928A95E1F748E064EE73E08CED6C
:1028000093E00E940C14182F0E949A03812F28969F
:10281000E5E00C9441370895EF92FF920F931F93D8
:10282000CF93DF937C018B01C42F222349F081E0F9
:102830008093C3010E94692F9093C2018093C101CC
:102840008091C301811102C080E01AC08091C10152
:102850009091C2010E94812F0597B0F3D0E0AE01A4
:10286000B701C8010E945837892B39F0AE01B70172
:10287000C8010E94653781E001C080E01092C30169
:10288000CDB7DEB7E6E00C9440370E9464310E9479
:1028900063100E94713108950E9476310E94771072
:1028A0000E94903108950E94002F0E944A310E9498
:1028B0004C100E9445140E944C140E945910FBCFEA
:1028C00083E290E00E948537883781F484E290E0CB
:1028D0000E9485378A3151F485E290E00E94853765
:1028E00091E0853E09F090E0892F01C080E0817081
:1028F0000895CF93C82F811102C06FEF01C068E720
:1029000083E290E00E949337C11102C06FEF01C0D3
:102910006AE184E290E00E949337C11102C06FEF38
:1029200001C065EE85E290E00E949337CF91089553
:10293000089586E290E00E948537682F70E080E07D
:1029400090E008950895CF93C62F0E94A2146C2F93
:1029500086E290E00E949337CF91089580E00E9434
:10296000791460E070E0CB010E94A3140E94C51BA3
:102970000E94621D81E00E94791408950E949814BB
:102980000E9499140E94A2140E946014811102C036
:102990000E94AE140895CF93FB01C281CC23E9F0CD
:1029A0009C0122513F452031310520F482510E9483
:1029B000721D0CC08031FFE59F0751F481E00E9439
:1029C000E40843E062E081E00E948D03C0E018C0AB
:1029D00081319F45A9F482E0F2CF8031EFE59E0777
:1029E00011F481E004C081319F4549F482E00E94E6
:1029F000F00843E062E081E00E948D0301C0C1E085
:102A00008C2FCF9108952FEFFC0120830895EF9232
:102A1000FF920F931F93CF93DF93EC01162F20911A
:102A20000D0330910E038881232B61F08E3F09F056
:102A30000CC18981833008F4FFC08550833008F0D1
:102A400004C1FAC08B3009F4E2C038F5853009F4CE
:102A500075C0B8F48230E9F130F4813009F0F1C08A
:102A6000198289E082C0833009F45BC0843009F0A8
:102A7000E8C04B816A8189810E94F91A9C838D8309
:102A8000E4C0873009F468C008F463C0883009F4F2
:102A900063C0893009F460C0D4C0803109F490C0AB
:102AA00060F48D3009F45EC008F459C08E3009F42A
:102AB0005EC08F3009F46CC0C4C0823109F487C095
:102AC00008F481C0833109F492C08E3F09F4B4C088
:102AD000B8C08981823041F0833069F0813009F0DB
:102AE000B0C00E94752F02C00E9499149A838B83F4
:102AF0007C836D83AAC080910F0390911003892B72
:102B000009F4A3C07E0122E0E20EF11C00E0802F58
:102B10000E940813F70181937F010F5F0830B9F716
:102B200094C08981823009F08CC06A817B818C815C
:102B30009D810E9411370E94A31487C02C813D8182
:102B40003227232732274B816A8189810E941A1BF1
:102B50007CC00E94C51B79C08FEF888376C00E941D
:102B6000191D33C00E941B1D99838A836EC0898101
:102B70009A819827892798276B8170E06D317105BC
:102B800008F063C0AE014C5F5F4F0E941E1D5DC028
:102B900080910F0390911003892B09F456C089810D
:102BA0009A819827892798276B8170E06D3171058C
:102BB00008F04BC0AE014C5F5F4F0E94411D45C005
:102BC0000E94621D42C00E94E61A89833EC089812C
:102BD0009A819827892798276B8170E06D3171055C
:102BE000A0F5AE014C5F5F4F0E94551C2EC089813D
:102BF0009A819827892798276B8170E06D3171053C
:102C000020F5AE014C5F5F4F0E94771C1EC0809183
:102C10000F0390911003892BC1F0CE010E94213047
:102C2000FFEF21EE84E0F15020408040E1F700C04A
:102C300000000E94D22F09C0612FCE010E941F17F1
:102C400004C0612FCE010E940315612FCE010E94A6
:102C50002130CDB7DEB7E6E00C94403781152CE586
:102C6000920759F480910F0390911003892B19F466
:102C700080E090E0089580E09CE50895E7E8F2E0C8
:102C800080E090E06BE47AE141ED59E12BE539E138
:102C90007783668351874087338722879587848728
:102CA00001963E968830910599F70895CF92DF926C
:102CB000EF92FF921F93CF93DF93CDB7DEB72A97A2
:102CC0000FB6F894DEBF0FBECDBF80E5ECEEF3E0AB
:102CD000DF011D928A95E9F788E3EFE4F2E0DF0176
:102CE0001D928A95E9F78CEEC82E83E0D82E7F01DD
:102CF00010E0F701D182C082BE016F5F7F4F812F4C
:102D00000E94711B892B79F488E0FE013196D6016F
:102D100001900D928A95E1F789859A85D7011396DE
:102D20009C938E931297BAE0CB0ED11CE7E0EE0E87
:102D3000F11C1F5F1830E9F62A960FB6F894DEBF33
:102D40000FBECDBFDF91CF911F91FF90EF90DF902D
:102D5000CF900895AAE0B0E0E0EBF6E10C941F37C5
:102D600006ED11E084ECC82E81E0D82EF12C9FE016
:102D7000E92E992493942EE4A22E22E0B22EF6019D
:102D8000019311936F01BE016F5F7F4F8F2D0E94E2
:102D90009B1B892B09F042C0F8018E2D11928A9558
:102DA000E9F789819A81F801918380838F818283F9
:102DB0008D81838388858483898585838B819C81AC
:102DC0009783868310868A8587FF03C016861586BB
:102DD00003C0F801B686A58680FF02C0F801908680
:102DE00081FF04C0F80190859260908782FF04C043
:102DF000F80190859460908783FF04C0F801908566
:102E00009860908784FF04C0F80190859061908756
:102E100085FF04C0F801808580628087015F1F4FB5
:102E2000F394F8E0FF12ABCF2A96EBE00C943B371B
:102E30000E943E160E9456160E94AA160895CF922E
:102E4000DF92FF920F931F93CF93DF93CDB7DEB73F
:102E50002A970FB6F894DEBF0FBECDBF603209F0DF
:102E6000D1C1DC011196EC9111974E2F50E04E30FC
:102E7000510508F0C7C18C01FA01EE59FF4F0C94BF
:102E80000B3788E0E8E1F1E0DE01119601900D9248
:102E90008A95E1F780E2F80111928A95E9F785E0D9
:102EA000D8018C9311961C92119712961C9212972E
:102EB00013961C92139788E0FE01319614960190A8
:102EC0000D928A95E1F79EC184EFFD018083118206
:102ED0001282138297C1DC0113968C91139790E0B4
:102EE000982F882712962C91820F911D092E000C85
:102EF000AA0BBB0B55E0880F991FAA1FBB1F5A9541
:102F0000D1F7AC01BD01405E5F4F6F4F7F4F481757
:102F100059076A077B0708F475C1843F9105A1052D
:102F2000B10508F06FC1453F51056105710520F0FD
:102F300044EF50E060E070E0481B590BBC016E505C
:102F40007E4FC8010E944F375DC140E250E06FEFF5
:102F500070E00E946E3780910F03F80180838091AA
:102F60000D0381831282138287E0848384E085834A
:102F700049C181E090E090930E0380930D0382E3BA
:102F800090E090930C0380930B030E94692F909321
:102F90000A038093090336C180910D0390910E03BB
:102FA000892BC9F160E080E00E94F312D82E64E022
:102FB00087E00E94F312F82E8091090390910A0392
:102FC0000E94812F8536910500F1DD20F1F0FF2070
:102FD000E1F00E94692F90930A0380930903809186
:102FE0000B0390910C03019790930C0380930B03B8
:102FF000892B89F410920E0310920D0381E090E06A
:103000009093100380930F0306C082E390E09093A7
:103010000C0380930B0380910F03D8018C93809154
:103020000D0311968C93119780910B0346C010925B
:10303000100310920F03E6C040E250E0BC01FC0117
:10304000828193810E94DE1FDDC0BC016F5F7F4FD4
:103050004FE150E0DC0112968D919C9113970E94F4
:103060000D200CC0BC016C5F7F4F4CE150E0DC01D7
:1030700012968D919C9113970E942820F8018083CD
:10308000C1C00E94AA1FBEC0DC011296EC918E2F17
:1030900090E08730910508F0B5C0FC01E059FF4F82
:1030A0000C940B3780E2F80111928A95E9F788E0D9
:1030B000D8018C9311968C93119712968C93A2C081
:1030C000F80183813AE0F32E9E012F5F3F4F6901A3
:1030D000D901EF2D1D92EA95E9F7B9010E94471B2E
:1030E0006DC0D8011396FC908AE0F8013496DE0199
:1030F000119601900D928A95E1F789819A810E943B
:103100002E169A8389838B819C810E942E169C8324
:103110008B838D819E810E942E169E838D838F814D
:1031200098850E942E1698878F83BE016F5F7F4F10
:103130008F2D0E945C1BF80180830E943E1662C0A6
:10314000D80113968C912AE0F22EFE0131966F0180
:10315000DF01EF2D1D92EA95E9F7B6010E94711B80
:103160002DC0D8011396FC908AE0F8013496DE0158
:10317000119601900D928A95E1F789859A850E94B2
:103180002E169A878987BE016F5F7F4F8F2D0E9411
:10319000861BF80180830E94561634C0D80113960E
:1031A0008C919AE0F92EFE0131966F01DF01EF2D2F
:1031B0001D92EA95E9F7B6010E949B1BD8018D93F9
:1031C000F60101900D92FA94E1F71CC0D801139614
:1031D000FC908AE0F8013496DE01119601900D9280
:1031E0008A95E1F78B819C810E942E169C838B83AC
:1031F000BE016F5F7F4F8F2D0E94B01BF80180834F
:103200000E94AA162A960FB6F894DEBF0FBECDBF55
:10321000DF91CF911F910F91FF90DF90CF90089594
:10322000A5E0B0E0E6E1F9E10C94283790933D0485
:1032300080933C04811520E2920718F40E94E40276
:1032400011C080EF89838A8381E08B830E94692F7C
:103250008160782F9D838C8349815A816B818D8118
:103260000E947D042596E2E00C944437A5E0B0E08E
:10327000ECE3F9E10C94283790933D0480933C04EF
:10328000811520E2920718F40E94FB0210C080EF23
:1032900089838A831B820E94692F8160782F9D8396
:1032A0008C8349815A816B818D810E947D04259692
:1032B000E2E00C9444370F931F93CF93DF938C017C
:1032C000EB0167EF72E08C2F0E94471B892B09F0FE
:1032D0004AC080915C0490915D04009741F0EFE951
:1032E000FFE03197F1F700C000000197F6CFDD272E
:1032F000CF5FDC4F8881F80112821882833079F029
:1033000048F4813041F1823071F58091F902909159
:10331000FA0209C0843051F08530E9F024C0809170
:10332000FB029091FC020097B1F01BC08091FD025E
:103330009091FE020097A9F42091F7023091F802D3
:103340008091F9029091FA022115310541F0009720
:1033500041F4C90106C08091F7029091F8020097EC
:1033600011F00E943619DF91CF911F910F910895AE
:10337000CF93DF93EC010E94101980915C0490912F
:103380005D04009741F0EFE9FFE03197F1F700C0ED
:1033900000000197F6CFCE010E943619DF91CF9140
:1033A00008950F931F93CF93DF938C01EB0167EF89
:1033B00072E08C2F0E94471B892B09F067C0DD2724
:1033C000F8018281813039F4958192FD13C090FF1C
:1033D00011C082E00FC0823041F4F801858182FD86
:1033E00006C080FD06C083E005C086E003C085E01E
:1033F00001C084E0CF5FDC4F88838330B1F028F4D4
:10340000813071F0823031F041C08430A9F08530D4
:1034100079F13CC08091F9029091FA020097A1F5F0
:103420008091F7029091F80220C08091FB02909168
:10343000FC020097E9F028C08091FD029091FE0205
:10344000009711F58091F7029091F802009749F0EA
:103450000E94B8198091F9029091FA02009781F0C8
:1034600013C08091F9029091FA02009779F00CC094
:103470008091F7029091F802009741F00E94B819EC
:103480008091F7029091F8020E941019DF91CF917C
:103490001F910F9108950F931F93CF93DF938C018A
:1034A000862F67EF72E00E94471B892BB1F4C09111
:1034B000F702D091F802209781F0F80182818330E1
:1034C00039F4CE010E94B819CE010E94B81902C089
:1034D000843018F0CE010E94B819DF91CF911F916E
:1034E0000F910895AAE0B0E0E8E7FAE10C942437E0
:1034F0008C017B0197558F3F910509F058F4BE016F
:103500006F5F7F4F802F0E94471B892B19F489859D
:103510009A8504C0B701C8010E9454202A96E6E0AB
:103520000C944037CF93DF93FB01228121114AC0D5
:10353000EC01D755CF3FD10511F008F043C067EF3C
:1035400072E08C2F0E94471B892BE1F58EE08C9F47
:10355000F0018D9FF00D1124E957FD4F82818130DC
:10356000C9F48091F7029091F802892B59F180916A
:10357000F9029091FA02892B29F18091FB02909136
:10358000FC02892BF9F48091FD029091FE02892BB7
:1035900049F018C08230B1F48091FB029091FC0296
:1035A000892B81F02EE02C9FC0012D9F900D1124BE
:1035B000FC01E457FD4F20812E7F208389579D4FCA
:1035C0000E943E2D81E0DF91CF91089584E008951F
:1035D00050E0440F551F2AE0629F400D511D1124F9
:1035E0009A0160E5869F200D311D1124C90187963F
:1035F00008950F931F93CF93DF938430A0F4683026
:1036000090F4453080F40E94E81A8C010E948537BE
:1036100090E0D82FCC27C80101960E9485379E01E3
:10362000282BC90102C080E090E0DF91CF911F916B
:103630000F9108950F931F93CF93DF93843080F4FD
:10364000683070F4453060F4E9010E94E81A8C019A
:103650006D2F0E9493376C2FC80101960E949337FB
:10366000DF91CF911F910F9108958432910528F435
:1036700089599E4F0E948537089580E008958432CD
:10368000910520F489599E4F0E9493370895883000
:1036900080F49B01982F8AE0989FB0011124655710
:1036A0007E4F4AE050E0C9010E94753780E090E00B
:1036B00008958FEF9FEF0895883080F49B01982F35
:1036C0008AE0989FB001112465577E4F4AE050E090
:1036D000C9010E94B73780E090E008958FEF9FEF17
:1036E0000895883080F49B01982F8AE0989FB0015C
:1036F000112465527E4F4AE050E0C9010E9475379F
:1037000080E090E008958FEF9FEF0895883080F477
:103710009B01982F8AE0989FB001112465527E4F3B
:103720004AE050E0C9010E94B73780E090E0089578
:103730008FEF9FEF0895883080F49B01982F8AE0E7
:10374000989FB0011124655D7D4F4AE050E0C901AA
:103750000E94753780E090E008958FEF9FEF089505
:10376000883080F49B01982F8AE0989FB001112443
:10377000655D7D4F4AE050E0C9010E94B73780E0A7
:1037800090E008958FEF9FEF0895AEE1B0E0EBEC8D
:10379000FBE10C941B3760900F037090100381E0E5
:1037A00090E09093100380930F03A12CB12C00E0C4
:1037B00010E0512CC12CD12CE12CF12C45018C0CAA
:1037C0009D1C0E94AB0290E00817190754F4F70102
:1037D000EE0FFF1FE80DF91DEE5FFE4F25913491AE
:1037E00002C021E030E04E2D652D802F0E941A1B73
:1037F0008FEFE81AF80A95E0E916F10411F7EAE00C
:10380000CE0ED11C5394F8E05F12D6CF0F5F1F4F3E
:1038100080E5A80EB11C0430110559F60E94AA1FBC
:103820001E8A1D8A188E1F8A1A8E198E1C8E1B8E58
:1038300088EC90E09E8F8D8F10E0BE016B5E7F4F15
:10384000812F0E945C1B1F5F1830B9F77E019BE03F
:10385000E90EF11C8AE0F70111928A95E9F710E070
:10386000B701812F0E94861B1F5F1830C9F7CE0158
:1038700001967C018AE0F70111928A95E9F78FEFB2
:103880009FEF9E838D8387E08A8710E0B701812FA9
:103890000E94B01B1F5F1830C9F77092100360922E
:1038A0000F036E96EFE00C943737EF92FF920F9371
:1038B0001F93CF93DF93EA017A01E60EF71E8C0186
:1038C000C8018796CE15DF0569F0003421E01207A4
:1038D00020F40E948537888301C0188221960F5FEB
:1038E0001F4FEECFCDB7DEB7E6E00C944037A0E037
:1038F000B0E0EDE7FCE10C941C37EC016B017A01C0
:103900008034914008F073C080E491E08C1B9D0BE3
:103910008617970708F46BC03E0137E2630E711CEF
:1039200080910F0390911003892B19F0CE0CDF1CAE
:1039300059C0C0FF11C0CE0186960E94853790E025
:10394000982F8827F7012081822B81159C4539F417
:103950008FEFF701808303C000E010E002C001E0B8
:1039600010E0CE018C0D9D1D560180FF17C0F1E0C7
:10397000AF1AB10847018A0C9B1CC3018C0D9D1D19
:103980000E948537F401208130E0322F2227282B36
:1039900021153C4519F48FEFF4018083F701E00F06
:1039A000F11F2FEFCF018E199F098A159B0508F093
:1039B000BDCF808190E0982F88273181832B81159E
:1039C0009C4511F4208321833296ECCFC034E1E092
:1039D000DE0720F4F70160810E949337FFEFEF1AB2
:1039E000FF0A2196CE018796EC14FD0479F7CDB736
:1039F000DEB7EEE00C94383720910D0330910E03C2
:103A0000232BA1F4703F39F4603F81F480913C0492
:103A100090913D040895843048F4783038F465304E
:103A200028F4462F672F0E94F91A089580E090E04D
:103A3000089580E1089585E891E00895EF92FF925E
:103A40000F931F93CF93DF93EA017A01E60EF71EDF
:103A50008C01C80185589D4FCE15DF0569F00538EA
:103A600021E0120720F40E948537888301C0188264
:103A700021960F5F1F4FEDCFCDB7DEB7E6E00C9478
:103A80004037EF92FF920F931F93CF93DF93EA019A
:103A90007A01E60EF71E8C01C80185589D4FCE15A0
:103AA000DF0559F0053821E0120718F468810E94FB
:103AB000933721960F5F1F4FEFCFCDB7DEB7E6E00C
:103AC0000C944037CF93DF93CBE7D2E060E0CE0198
:103AD0000E9493372196C11584E0D807B9F7DF918A
:103AE000CF910895A4E0B0E0E8E7FDE10C941E3723
:103AF000F82E2FE0281708F4B4C08FEF93E00E944F
:103B000085378111AEC00BE712E0FF2071F001157F
:103B100084E0180709F4A5C0C8010E948537811107
:103B200001C0FA940F5F1F4FF0CF19821A821B82D7
:103B30001C82CC24CA947801EFEFEE1AFE0AC80169
:103B40000E94853789831A82882309F48AC08130CC
:103B500009F081C05801F2E0AF0EB11CC7010E940C
:103B60008537D82E8A83882309F47BC08FEF8D0D8B
:103B7000833088F4780123E0E20EF11CC5010E9435
:103B800085378B83811102C08701D5CFCE01019685
:103B90000E94EB22F9CF8BEF8D0D833078F5480131
:103BA00083E0880E911CC5010E9485378B838111AB
:103BB00002C07401E9CF7801E4E0EE0EF11CC4010B
:103BC0000E9485378C838823F9F22B813C81213038
:103BD000FFEF3F0718F0922F80E001C0C90126E0F7
:103BE000D21631F0E7E0DE1631F00E94B819CCCFE2
:103BF0000E941019C9CF0E943619C6CFF4E0DF1613
:103C000011F07501C1CFC5010E948537D82E78010A
:103C100024E0E20EF11CC80103960E948537DD20E6
:103C200001F18823F1F0282F30E021503109C29EA4
:103C3000A001C39E500D11248D2D90E00197840F9B
:103C4000951F019708F4A0CFEFE9FFE03197F1F756
:103C500000C00000F6CF60E0CE0101960E948422F1
:103C600093CF2496ECE00C943A37A0E0B0E0EBE37D
:103C7000FEE10C9420374430510508F46CC04091AB
:103C8000DA0341FBCC24C0F8D12CCC0CDD1C42FB68
:103C9000882780F9C82FE0E0DE2FCC0FDD1FCC0F86
:103CA000DD1FCC2ADD2A40FBEE24E0F8F12CEC28C5
:103CB000FD2843FBAA27A0F9B0E023E0AA0FBB1F11
:103CC0002A95E1F7EA2AFB2A44FBEE27E0F9F0E027
:103CD00034E0EE0FFF1F3A95E1F7EE29FF2945FB8F
:103CE000222720F930E055E0220F331F5A95E1F7E3
:103CF0002E2B3F2B46FB882780F990E0E6E0880FCB
:103D0000991FEA95E1F7822B932B47FB442740F953
:103D100050E05695542F442757954795842B952B63
:103D20002091DB03322F3170132F00E0082B192B69
:103D300026952170B22EBB0CA12C0A291B29012E1D
:103D4000000C220B330BFB0100831183228333838E
:103D500080E090E002C08FEF9FEFCDB7DEB7EAE0E2
:103D60000C943C37CF92DF92EF92FF924430510592
:103D700008F46FC0FB01C080D180E280F3800E9414
:103D8000A7058091DA03C0FA80F9B701A6017695FC
:103D900067955795479540FB81F9B701A60122E049
:103DA00076956795579547952A95D1F740FB82F907
:103DB000B701A60133E076956795579547953A95F3
:103DC000D1F740FB83F9B701A601E4E0769567954A
:103DD00057954795EA95D1F740FB84F9B701A601BD
:103DE000F5E07695679557954795FA95D1F740FB9D
:103DF00085F9B701A601A6E0769567955795479591
:103E0000AA95D1F740FB86F9B701A601B7E07695F0
:103E1000679557954795BA95D1F740FB87F98093F9
:103E2000DA038091DB03D0FA80F999E0F694E79405
:103E3000D794C7949A95D1F7C0FA81F98093DB03A0
:103E40008091DA039091DB030E948F0F80E090E075
:103E500002C08FEF9FEFFF90EF90DF90CF9008951B
:103E600080913E0490913F040E94562408959C0145
:103E7000CA01F9013296459154918417950750F083
:103E8000CB01F9013496659174910E94653780E009
:103E900090E008958FEF9FEF08950F931F93CF93B6
:103EA000DF930EE314E0C0E0D0E0CE010E94351BAA
:103EB000F80161918F01861719F0CE010E943F1B16
:103EC0002196C432D10589F7DF91CF911F910F91CF
:103ED0000895DA019C012E5F3F4FF90145915491FD
:103EE000F90125913491A217B30758F0FC013496DB
:103EF000859194910E9465370E944D1F80E090E06B
:103F000008958FEF9FEF08950F931F93CF93DF9343
:103F10000EE314E0C0E0D0E0CE010E94351BF801B2
:103F200081938F012196C432D105B1F7C0E0D0E072
:103F3000FE01E051FD4F85919491009711F0FC0135
:103F400009952C96C039D10599F7DF91CF911F9132
:103F50000F910895EEE3F4E0128E138E8FEA90E055
:103F60009183808385E0848F28E833E13383228343
:103F700022E330E0378B268B28EC30E0318F208F26
:103F8000158E178E168E20E530E031A320A382A374
:103F90000E944D1F0E94A7051092DB031092DA03C6
:103FA000EBEDF3E08081846080838091DA0390916F
:103FB000DB030E948F0F0E94841F0895EF92FF92EF
:103FC0000F931F93CF93DF937C01EB018A016FEF77
:103FD00070E0CE010E946E3726EE32E080E090E085
:103FE000AC014E5F5F4F0417150790F0F901659122
:103FF0007491E616F70630F4FE01E80FF91F71839D
:104000006083CA01245F3F4F43E02637340741F7FE
:10401000CDB7DEB7E6E00C9440379C0186EE92E027
:10402000FC01A591B4912A173B0741F00C96E3E0FF
:1040300086379E07A9F78FEF9FEF0895FC0136960C
:104040002591349121153105B1F3F90109950895B0
:10405000CF93DF93C6EED2E0FE0125913491821713
:10406000930731F02C9623E0C637D207A9F707C093
:10407000FE013896259134912115310519F48FEF01
:104080009FEF0FC0CE01F9010995009751F4FE0191
:104090003A9685919491009711F0FC01099580E082
:1040A00090E0DF91CF91089580915604909157044C
:1040B000089580915B048170089580915B048695DA
:1040C0008170089580915B0482FB882780F90895B0
:1040D00080915B0483FB882780F9089580915404C4
:1040E0009091550408958832910550F48E319105D0
:1040F000A0F4049700F1809159048295817012C058
:104100008933910530F48D32910578F48B9769F0FD
:1041100012C08436910549F00EC08091590483FB8A
:10412000882780F991E0892708958091590482FBBE
:10413000882780F9F7CF80E008958091590485FBA6
:10414000882780F908958091590486FB882780F993
:104150000895CF93DF93EC01FB018281882309F45A
:1041600072C1C330FDE5DF0760F4CA3F9CE5D907A3
:10417000D0F49E0122503C452431310508F064C141
:1041800012C0C53AEDE5DE0771F030F4C1369DE5A9
:10419000D90709F059C107C09E012D5A3D4523306A
:1041A000310508F051C10E947E0F9093DB0380938C
:1041B000DA03C231ECE5DE0709F405C108F04BC0B3
:1041C000C9308CE5D80709F4D2C000F5C530ECE55C
:1041D000DE0709F4B9C078F4C3308CE5D80709F4D8
:1041E000AAC008F0AEC0C230DC4509F022C18091FF
:1041F000DA038160A3C0C730FCE5DF0709F4AFC074
:1042000008F0B1C08091DA03806198C0CD309CE5A0
:10421000D90709F4C2C058F4CB30FCE5DF0709F434
:10422000B0C008F0B6C08091DA038860A6C0CF3075
:104230009CE5D90709F4BFC008F4B2C0C031FCE561
:10424000DF0709F4BCC0C131DC4509F0F2C0809140
:10425000DA038F7B73C0CF3F9CE5D90709F4BEC05A
:1042600088F5CA3FFCE5DF0709F472C0B8F4C43131
:104270009CE5D90709F4C1C008F4ABC0C531DC45E1
:1042800009F0D7C08091DA0382FB222720F991E060
:10429000922790FB82F990FB83F950C0CC3F8CE5CC
:1042A000D80709F481C008F456C0CD3FECE5DE071D
:1042B00009F47DC0CE3FDC4509F0BBC08091DB0333
:1042C00082605DC0C1368DE5D80709F4A6C068F4E8
:1042D000C130EDE5DE0709F49CC008F484C0C230AB
:1042E000DD4509F0A6C080E095C0CD3A9DE5D9072F
:1042F000F1F058F4C53ADD4509F09BC08091DA032E
:10430000982F909590FB80F919C0CE3A8DE5D8078B
:10431000E1F1CF3ADD4509F08CC08091DB0383FBEE
:10432000222720F991E0922790FB83F980C08091A9
:10433000DB0388607CC08091DA0382608093DA03BB
:1043400078C08091DA0319C08091DA038860F6CFD3
:104350008091DB0314C08091DB03826068C0809190
:10436000DA038062EBCF8091DA038064E7CF0E94AA
:10437000A7058091DA038068E1CF8460DFCF816098
:1043800056C08091DA038E7FD9CF8091DB03877F7F
:104390004EC08091DA038D7FD1CF8091DA031CC0AB
:1043A0008091DA03877FCACF8091DB031AC08091A6
:1043B000DB038D7F3CC08091DA038F7EBFCF80917D
:1043C000DA038F7DBBCF0E94A7058091DA038F7738
:1043D000B5CF8091DA03877F8B7FB0CF8091DB03ED
:1043E0008D7F8E7F24C08091DB03982F90959170F4
:1043F0008E7F892B90FB81F91AC00E94A7058091BE
:10440000DA0387FB222720F991E0922790FB87F9B6
:1044100095CF81E00E941B100CC08091DA0384FBD1
:10442000222720F991E0922790FB84F987CF80938F
:10443000DB038091DA039091DB030E948F0F0E94CF
:10444000A70580E001C081E0DF91CF910895A0E051
:10445000B0E0EDE2F2E20C942337E82FF0E0EA5806
:10446000FC4FD490282F26952695269530E0F9010B
:10447000EA5EFB4F0491877010E0082E02C015958C
:1044800007950A94E2F701701127F901EA5FFB4FE3
:10449000E490F12C082E02C0F594E7940A94E2F718
:1044A00091E0E922FF24F901EA50FC4FC491D0E0E9
:1044B00002C0D595C7958A95E2F7C170DD27011531
:1044C000110519F081EE0E94F704E114F10419F0CE
:1044D00086EE0E94F7048D2D0E946F05E114F10411
:1044E00019F086EE0E9429050115110519F081EEDB
:1044F0000E942905CD2B19F08CE20E946F05CDB7E3
:10450000DEB7E7E00C943F37EF92FF920F931F93D3
:10451000CF93DF93EC01162F0AE08881882309F4FA
:1045200055C0813009F043C08981813041F47E015A
:1045300082E0E80EF11C8A810E946F0509C082307A
:1045400049F47E01E2E0EE0EF11C8A810E94F7043C
:10455000E7012FC0833041F47E01F2E0EF0EF11C41
:104560008A810E942905F4CF843011F0219621C060
:104570002A81229680E090E030E0205331092A30F1
:10458000310558F4089FA001099F500D1124C9015D
:10459000840F951F21962881EFCF009751F0EFE906
:1045A000FFE03197F1F700C000000197F6CF0E94BD
:1045B00027222196812F882309F4AFCFEFE9FFE06E
:1045C0003197F1F700C000008150F5CFCDB7DEB7CD
:1045D000E6E00C94403760E00E94842208958091C8
:1045E0000401877F8093040182E00E943D0E809148
:1045F000040184FF06C08F7E8093040182E00E9444
:10460000240E8091040185FF06C08F7D80930401F4
:1046100080E20E94240E0E94820E0895CF93DF93C1
:10462000EC01662319F082E00E94370ECE0190560D
:10463000811520E2920720F0905E8115904118F4D8
:10464000CE01992701C0CE010E94E402DF91CF91F3
:1046500008959C013056211540E2340720F0305E69
:104660002115304108F499270E94FB020895FC01AE
:10467000FF2724E0F695E7952A95E1F79C012F7036
:104680003327EE0FFF1FEF5EFC4F81E090E002C08A
:10469000880F991F2A95E2F7662329F0208131813E
:1046A000822B932B06C080959095208131818223A7
:1046B0009323918380830895FC0123E0F695E79589
:1046C0002A95E1F7EE71FF27EF5EFC4F8F70992777
:1046D00021E030E002C0220F331F8A95E2F780818B
:1046E00091812823392381E0232B09F480E0089568
:1046F000A0E0B0E0EEE7F3E20C942337EC017B019D
:10470000D42E89018091040182FF80C02091390359
:1047100030913A032C173D0719F0209709F076C025
:10472000909104019B7F9093040191FD11C08091B1
:104730003B0390913C03A701481B590B61E080911A
:104740000501909106014817590718F460E001C06F
:1047500061E061708091040160FB81F98093040144
:10476000C9010E9437230E94210E81FF08C0809159
:10477000040180618093040182E00E942A0E0E945D
:10478000210E85FF08C0809104018062809304019E
:1047900080E20E942A0E6091040166956170A80172
:1047A0008091390390913A030E940E23D11005C0E5
:1047B00080915C0490915D0413C0B801809139032D
:1047C00090913A030E949D20882391F3B801809133
:1047D000390390913A030E94A3208111E9CF2BC0A5
:1047E000009741F0EFE9FFE03197F1F700C00000DA
:1047F0000197F6CF6091040166956170A8018091E0
:10480000390390913A030E9429230FC0CE010E94E0
:104810005C23A801682FCE010E94292380913903CF
:1048200090913A03C817D90711F40E94EF22F09231
:104830003C03E0923B03CDB7DEB7E7E00C943F3793
:104840008091590480FF1EC08091040182FF1AC02C
:104850000E94692F20913B0330913C03AC01421B25
:10486000530B20910501309106014217530750F078
:1048700021E333E041E0BC018091390390913A0398
:104880000E947823089580910401982F909590FBC1
:1048900080F9809304010E94EF2208958091040121
:1048A0008E7F809304010E94EF2208959093060169
:1048B000809305010895A0E0B0E0E1E6F4E20C94F5
:1048C00022372091590420FF3AC08B01EC010E944D
:1048D000692F6C01F80182818823A1F18091040184
:1048E00082FF08C021E333E040E0B60180E090E0C1
:1048F0000E947823CB31FCE5DF0759F0CC312CE561
:10490000D20769F0CA318CE5D80759F40E944324D4
:1049100008C08091040181608093040102C00E945C
:104920004E24CE0190568115E0E29E0720F0905E65
:1049300081159041A8F510923A0310923903FF2493
:10494000F394EDC0C13ED10521F4809104018F7E26
:1049500006C0C53ED10531F4809104018F7D80935E
:1049600004011EC0CE019056811520E2920720F06E
:10497000905E81159041A0F48091040182FBFF2498
:10498000F0F882FFDCCFB801CE010E945D208111DA
:10499000D6CF21E333E040E0B60180E090E0B9C03B
:1049A0008091040180FFCBCFB801CE010E9473201B
:1049B000F801F280882309F4AFC0FF2009F4A5C0F4
:1049C0000E94210EF82E0E94530E8F298D7FB9F080
:1049D00010923A03109239038091590481FD0FC05F
:1049E00060E0CE010E943723A80160E0CE010E9462
:1049F0000E230E94530E8D7F0E945D0E81C088E0C1
:104A0000F801A1E3B3E001900D928A95E1F71092CD
:104A1000330310923503109234038091390390913F
:104A20003A03C817D90709F04BC0B801CE010E945C
:104A30009D20882309F444C08091040181FD12C0A7
:104A400080913B0390913C037601E81AF90AB80182
:104A50008091390390913A030E94721AE816F90680
:104A600078F50AC0B8018091390390913A030E9409
:104A7000A3208111E5CF24C00E94210E81FF08C030
:104A80008091040180618093040182E00E942A0EDB
:104A90000E94210E85FF08C08091040180628093EE
:104AA000040180E20E942A0E609104016695617003
:104AB000A8018091390390913A030E940E2323C0EC
:104AC0000E94210E182F0E94530E812B8695817013
:104AD0009091040180FB91F9909304010E94530E80
:104AE0008D7F0E945D0ED0933A03C0933903D0921C
:104AF0003C03C0923B0380910401846080930401D5
:104B000082E00E941D0FF12C0AC0980140E0B6011E
:104B1000CE010E94782303C0F1100DCF10CF8F2D4E
:104B2000CDB7DEB7E8E00C943E3708950F931F939E
:104B3000CF93DF938091A803882309F459C0C091D3
:104B40003D031CE08091A803C81708F04DC001E0A8
:104B50000C0F00933D03D0E01C9FF0011D9FF00D52
:104B60001124E85BFC4F9081818123813481232BC8
:104B700031F08F3F31F481E09F3F19F403C081E0B1
:104B800001C080E080FD2EC01C9FD0011D9FB00D94
:104B90001124A85BBC4F16968D919C911797892B79
:104BA00061F418968D919C9119978F3F2FEF920782
:104BB00021F061E00E9495250AC020813181428167
:104BC000538164817581868197810E942D0D1C9F80
:104BD000F0011D9FF00D1124E85BFC4F148213823D
:104BE0000E94440EC02FAECF1092A80310923D0336
:104BF000DF91CF911F910F9108951092AA03109207
:104C0000A9032091080130910901EFE4F2E080E06E
:104C100090E08217930741F04581411102C0148250
:104C2000168201963796F5CF0895BC014091460350
:104C300080914703942F981729F1292F30E0F9012B
:104C4000EE0FFF1FE25CFC4F0190F081E02DE617B4
:104C5000F70799F487E0869FF001879FF00D1124F4
:104C6000E15BFD4F81E0848394130CC02F5F3F4FC5
:104C7000237033272093460308952F5F3F4F922FD1
:104C80009370D9CF08956F927F929F92AF92BF9207
:104C9000CF92DF92EF92FF920F931F93CF93DF9308
:104CA000DB0114962C911497211160C0A090A803E9
:104CB000E8E4F3E020E030E0B12C66246394712C4A
:104CC0002A1508F051C0E284F384CD90DC9011974E
:104CD0006FEF7FEF912C492D50E08A01000F111FDB
:104CE0000C0D1D1DE801088119810115110531F018
:104CF000E016F10609F4BA019394EDCF6F3FDFEFB0
:104D00007D0771F1E30102C0CC0FDD1F6A95E2F768
:104D1000BC2AB30102C0660F771F9A94E2F7AB0179
:104D2000415051096B2D70E046175707B9F41296A0
:104D30004D915C9113976CE0629FF001639FF00DC1
:104D40001124E85BFC4F578346832EEF2083218399
:104D50009187808721E015962C9306C014821382D8
:104D60002F5F3F4F3C96ACCF0E941526DF91CF912D
:104D70001F910F91FF90EF90DF90CF90BF90AF9079
:104D80009F907F906F9008951F93CF93DF93C09172
:104D9000460317E080914703C817A1F0D0E0FE0159
:104DA000EE0FFF1FE25CFC4F80819181189FB001E4
:104DB000199F700D1124615B7D4F0E94432621963F
:104DC000C370E8CF0E9496250E94FD25DF91CF9108
:104DD0001F9108951F93CF93DF93DC01DC9111960F
:104DE0001C91119780E090E020E0ED2FF12FE20F71
:104DF000F11DE20FF11D4081518141155105B9F0BE
:104E0000FB01C081318190E0EC2FF32FE90FF11D00
:104E1000E90FF11D0190F081E02D309731F04E1730
:104E20005F0709F481E09F5FEFCF2F5FDECF88231C
:104E300021F0921728F0CD0104C080E090E001C07D
:104E4000CB01DF91CF911F910895809107018823B5
:104E500041F18091AB039091AC03009711F10E9456
:104E6000812F2091A9033091AA0328173907C8F48C
:104E70009091460380914703981759F00E94C426E9
:104E80001092AA031092A9031092AC031092AB03E4
:104E900008950E9496251092AC031092AB030E94D5
:104EA000FD2508951092AC031092AB0310920701F8
:104EB00080914703809346030E94FD250E9496251A
:104EC000089580910701882319F00E9452270895C0
:104ED00081E0809307010895ACE0B0E0E2E7F7E2FB
:104EE0000C9418374C016B01873F2CE5920741F475
:104EF000FB0112811123B1F081E080930701A2C16F
:104F0000883FFCE59F0739F4FB011281112351F022
:104F10000E94522797C1893F9C4521F4FB011281D1
:104F200011110EC00FE412E0E12CF12C1B86442479
:104F30004394512C9E012F5F3F4F3A87298749C0E8
:104F40000E9461277FC18416950609F0C50123944C
:104F50005C01822D90E0FC01EE0FFF1FE20FF31FBA
:104F6000408151814115510571F7FFEFAF16BF0622
:104F700009F41FC1F801648161113BC080910701F0
:104F80008170F6013280332009F4AFC0882309F420
:104F9000ACC0B801C7010E946E203C01F8018581B8
:104FA000882351F19201022C02C0220F331F0A9470
:104FB000E2F721503109F801868190E0281739077E
:104FC00081F1FB85F329FB872FEFE21AF20A095FD3
:104FD0001F4F8091080190910901E816F90608F029
:104FE000EAC0F80120813181AA24AA94BA2C212C8C
:104FF000B0CF80E090E0C4CFC2010A2C01C0880F7E
:105000000A94EAF79681892B86838091A90390916F
:10501000AA038615970530F67092AA036092A90339
:10502000C1CF8091AB039091AC03009749F00E94EF
:10503000812F6816790620F421E0F8012483C1CF7E
:1050400020904603309147033C8780E090E0EC8558
:105050002E16A9F1A22CB12CF501EE0FFF1FE25C78
:10506000FC4F2081318147E0429FC001439F900D5A
:105070001124FC01E15BFD4F3F01B801CF010E940B
:10508000EA260097A9F021E0FC012483801791070C
:1050900009F497CF2091460322120AC068167906B8
:1050A00039F495012F5F3F4F237033272093460338
:1050B00095012F5F3F4F422F4370242EC8CF80179A
:1050C000910709F47ECFA22CB12CF501EE0FFF1F42
:1050D000E25CFC4FF182E082FFEFAF1ABF0A23E0EF
:1050E000A222BB24A09247036CCFF80195812681B0
:1050F000911115C0A201022C02C0440F551F0A9441
:10510000E2F74150510930E04217530709F043C01C
:10511000662309F441C0C7010E9415263CC0822FB6
:1051200090E09C0121503109282339230A2C02C028
:10513000959587950A94E2F7232B59F580FF29C0AE
:10514000F80182819381892BE1F0E985FA8528E0D5
:1051500011922A95E9F73EEF39833A830E94692F2D
:105160008160582F9D838C83F801828193818F8386
:10517000988729813A814B816D817E810E942D0D16
:1051800004C060E0C7010E949525F801158281E006
:1051900003C0817001C080E092010A2C01C0220F7F
:1051A0000A94EAF72095F801968129232683382E60
:1051B00008CF312C06CFF6018281882379F1FB8557
:1051C000FF2361F10E94692F9093AC038093AB039E
:1051D0008091A803883098F591E0980F9093A803E8
:1051E00098E0F601DE01119601900D929A95E1F793
:1051F0002CE0829FC0011124885B9C4F28E0FE01B7
:105200003196DC0101900D922A95E1F72FEF3FEFE7
:10521000FC01318720879386828611C090914603D6
:1052200080914703981719F00E94C42608C00E9475
:1052300096251092AC031092AB030E94FD2511E05D
:10524000FB851F27812F2C96E2E10C943437CF93F6
:10525000DF9386319C4509F042C0EB010E94210E8C
:10526000982F9A7A2091580420FF04C0382F347464
:1052700009F090E021FF04C0382F317109F090E06F
:1052800022FF04C0382F387809F090E023FF03C0D4
:10529000827209F090E08A81209100013091010131
:1052A000882379F081E0911101C080E08093AD0303
:1052B000911102C069E201C065E3C9010E94AF2EED
:1052C0000AC08091AD03811102C069E201C065E3AB
:1052D000C9010E94B22E0E94820E80E001C081E0CE
:1052E000DF91CF910895FC0184818623C1F49281DE
:1052F0009923B9F08085692383FF04C081E061119F
:1053000011C00DC0892F8F7092959F70982B862F9A
:105310008F7062956F70682B81E0961719F080E0AE
:10532000089581E00895CF93DF93EC016091B80375
:105330007091B9038091BA039091BB030E94902FA2
:10534000643F714081059105A8F48091B803909164
:10535000B903A091BA03B091BB038093B4039093B7
:10536000B503A093B603B093B70384EF91E0A0E038
:10537000B0E00EC00E94752F6093B4037093B50324
:105380008093B6039093B70382E390E0A0E0B0E08F
:105390008093B0039093B103A093B203B093B3038F
:1053A000D093AF03C093AE03DF91CF910895FF92E6
:1053B0000F931F93CF93DF930091BF031091C0030E
:1053C0000115110509F462C0F82E1092AF03109276
:1053D000AE030E94500E0E944A0E0091BF0310912E
:1053E000C003D80116966D917C911797CB019A95C1
:1053F00081159F4108F4707EC62FD1E0611101C074
:10540000D0E0D8011996ED91FC911A97309739F0B8
:105410001B966D917C911C9780E00995D823DD2324
:1054200089F08CEF8C0F813A40F46C2F8091000151
:10543000909101010E94B22E05C00E94820E8C2F15
:105440000E942905E091BF03F091C0034081518182
:10545000FF2071F0808584FD0BC08091BE038823FE
:1054600039F091E09A0121503109203B3D4508F087
:1054700090E090FF03C0CA010E9493290E94820E0F
:105480001092C0031092BF031092BE03C801CDB7A3
:10549000DEB7E5E00C94413710920A0180E00E94EB
:1054A000D729089580910A01882319F00E944C2A77
:1054B000089581E080930A0108950F931F938091CE
:1054C000AE039091AF03892B89F16091B403709181
:1054D000B5038091B6039091B7030E94902F00917D
:1054E000B0031091B1032091B2033091B303601760
:1054F000710782079307D0F08091AE039091AF03BC
:105500000E94E4021092AF031092AE031092B40313
:105510001092B5031092B6031092B7031092B00325
:105520001092B1031092B2031092B3031F910F9126
:105530000895A9E0B0E0EFE9FAE20C9418378C0185
:105540007B836A83DB0112963C903320B1F08F3568
:10555000BDE59B0751F08036EDE59E0759F08E358D
:105560009D4559F40E94522A03C081E080930A01AC
:10557000412CA1C10E944C2AFBCF40900A0141104E
:1055800003C04424439497C1580120EEA21AB108E5
:105590000E94210EF82E0E94D90D582E0E94530E03
:1055A00085298F2938E0A316B10490F4A80147702B
:1055B000552721E030E001C0220F4A95EAF7332059
:1055C00019F0582E522A1AC0522E5094582216C042
:1055D000582E332009F42DC11093BD030093BC0352
:1055E0000E94752F6093B8037093B9038093BA0338
:1055F0009093BB031092AF031092AE03AA81BB81BC
:105600008D919C910E9483098090020190900301EA
:105610008114910409F424C121E030E0F90102C0B1
:10562000EE0FFF1F8A95E2F7FF83EE832091BF0301
:105630003091C0033B832A834091BC035091BD034A
:105640005D834C83212C632C712CF401E20DF11D40
:10565000E20DF11D8081918199878887009709F477
:10566000FFC0511005C0DC0112968C918111DFC082
:10567000E885F985838190E02E813F818223932301
:10568000892B09F4D4C08085982F977009F487E09E
:1056900038E0A316B10440F4332019F081FD09C0AD
:1056A000C6C082FD06C0C3C0332009F4C0C080FF5D
:1056B000BEC0A885B985CD90DC900C151D0519F4E8
:1056C000332009F4B4C0E885F9852A813B81E217CB
:1056D000F30709F4ACC00584F685E02D309721F07E
:1056E0008081882309F4A3C0652D888599850E944F
:1056F0007329882309F49BC00C151D0511F473014F
:1057000002C0E12CF12C3E2D3170398381E0C114AF
:10571000D10441F0311106C04C815D81C416D5061B
:1057200009F080E080FF83C080E00E94D72988854F
:1057300099859093C0038093BF0381E08093BE035B
:10574000A885B98515968C910E944D0EB981B1112D
:1057500017C0C114D104A1F0E885F9858081918139
:105760009C0124503109213A310540F4682F809181
:105770000001909101010E94B22E02C00E942905F1
:10578000A885B98516960D911C911797C8019A9511
:1057900081159F4108F4107EDD24D394C801019740
:1057A000803B9D4508F0D12CA885B9851996ED91CF
:1057B000FC911A97309739F01B966D917C911C974C
:1057C00081E00995D822DD2041F1E885F9858681BF
:1057D00097810E94AD020E94470EC801F8E0AF1603
:1057E000B10418F40E94932918C00497813A9105D6
:1057F00040F4602F80910001909101010E94AF2E32
:105800000EC00E94820E8FE39CE90197F1F700C061
:105810000000802F0E94F70402C00E94820E91E0D7
:10582000E926E0FC46C00E94820E80E043C023943B
:105830000CCF8091BC039091BD030817190781F428
:105840001092BD031092BC031092B8031092B903DA
:105850001092BA031092BB031092AF031092AE03E2
:105860008091BF039091C003009709F48ACEA8E00D
:10587000AA16B10438F4652D0E947329811181CED6
:1058800081E014C0FC01208131810217130729F443
:10589000311006C01092BE0308C0332009F471CE47
:1058A000DC0118968C9185FD6CCE80E00E94D72992
:1058B00002C081E0482E842D2996E2E10C94343711
:1058C000A0E0B0E0E6E6FCE20C9420377C015B014E
:1058D000C42FD22FFC0182818823B1F04093C303EF
:1058E0000E94692F9093C2038093C10380E28C0FC2
:1058F000883008F052C0C77081E001C0880FCA9597
:10590000EAF70E947D0549C08091C303481335C062
:105910008091C1039091C2030E94812F6C01B70155
:10592000C5010E94721AC816D90638F510E21D0F7B
:10593000CD17B9F080E28C0F883040F4C77081E059
:1059400001C0880FCA95EAF70E948405183010F547
:1059500081E09D2F977001C0880F9A95EAF70E9409
:105960007D05802F0E946F051830B8F4D77081E054
:1059700001C0880FDA95EAF70AC080E28C0F883000
:1059800060F4C77081E001C0880FCA95EAF70E94F1
:10599000840503C0802F0E946F05CDB7DEB7EAE013
:1059A0000C943C370F939C01CB01233F4CE534070B
:1059B00031F188F4283DFCE53F07D9F0293D4CE55D
:1059C000340779F1273D3C45A9F506E221EE41EE89
:1059D00067ED7CE52BC0253FFCE53F07E1F0A8F033
:1059E000263F3C4539F507E225EE46EE66EF7CE5BD
:1059F0001DC007E225EE45EE68ED7CE517C006E226
:105A000021EE40EE63EF7CE511C007E225EE44EEA7
:105A100064EF7CE50BC006E221EE42EE65EF7CE52B
:105A200005C008E221E045EE69ED7CE50E94602CAE
:105A300080E008C0FC018281882319F01092C30322
:105A400001C081E00F910895CF93DF93EC01EA85C7
:105A5000FB85309719F06C857D8509958B810E94B7
:105A60003D0E8C810E942A0E0E94820E86E0FE016D
:105A700011928A95E9F7DF91CF910895CF93DF9343
:105A8000EC018D8181FD12C082608D838B810E942B
:105A9000370E8C810E94240E0E94820EE885F985C3
:105AA000309721F06C857D85CE0109951092C70352
:105AB0001092C6038D8180FD03C0CE010E94242D6B
:105AC000DF91CF910895FB0122812223F1F02091F3
:105AD000C6033091C70321153105B9F028173907DE
